:020000040800F2
:10000000000003202907000875070008750700088D
:100010007507000875070008750700080000000054
:10002000000000000000000000000000750700084C
:100030007507000800000000750700083D0600086D
:1000400075070008750700087507000875070008A0
:1000500075070008750700085D05000875070008AA
:100060007507000875070008750700087507000880
:100070007507000875070008750700087507000870
:100080007507000875070008750700087507000860
:100090007507000875070008750700087507000850
:1000A0007507000875070008750700087507000840
:1000B000E1050008750700087507000875070008C6
:1000C0007507000875070008750700087507000820
:1000D0007507000875070008750700087507000810
:1000E0007507000875070008750700087507000800
:1000F00075070008750700087507000875070008F0
:1001000075070008750700087507000875070008DF
:1001100075070008750700087507000875070008CF
:1001200075070008750700087507000875070008BF
:1001300075070008750700087507000875070008AF
:10014000750700087507000875070008750700089F
:10015000750700087507000875070008750700088F
:10016000750700087507000875070008750700087F
:1001700075070008750700087507000800000000F3
:10018000750700087507000875070008750700085F
:10019000750700087507000875070008750700084F
:0C01A000750700087507000875070008C7
:1001AC0010B5054C237833B9044B13B10448AFF3A5
:1001BC0000800123237010BD04000020000000000B
:1001CC00C007000808B5034B1BB103490348AFF344
:1001DC00008008BD0000000008000020C0070008D7
:1001EC0008B500F063F900F023F900F051F800F0C5
:1001FC00EFF800F0A9F800F02FF908BD08B5FFF7EB
:10020C00EFFF00F01BF80023074A1370074A137026
:10021C00074A1370074B9A6842F080429A60DA6C76
:10022C00054B1A60F6E700BF380000203A000020AA
:10023C00390000200020014020000020034B002248
:10024C005A639A63DA631A64704700BF0000014076
:10025C0010B50446FFF7F2FF032C07D8DFE804F0D3
:10026C0002070C11094B4FF47A725A6310BD074BFD
:10027C004FF47A729A63F9E7044B4FF47A72DA63AB
:10028C00F4E7024B4FF47A721A64EFE70000014076
:10029C00274B1A6B42F013021A635A6C42F48042D9
:1002AC005A64244A136823F003031360D36823F0C1
:1002BC00030343F00103D3601F4B1A6822F00302BF
:1002CC001A60DA6822F0030242F00102DA601A685E
:1002DC0042F00C021A60DA6822F00C02DA60174A5B
:1002EC00936823F00F039360154B196841F00101DB
:1002FC001960D96841F00101D960996821F00101B8
:10030C009960012058619168014391601A68024319
:10031C001A60DA680243DA609A6822F001029A6085
:10032C005861084B102283F8062340221A6070474C
:10033C000038024000000240000402400038014036
:10034C00003C014000E100E01E4B1A6B42F0100231
:10035C001A635A6C42F001025A64A3F520531A68CE
:10036C0022F0735222F440221A601A6842F0225290
:10037C0042F400221A60596A134A0A405A62596AB6
:10038C00124A0A435A62A3F58833A7229A6240F2B2
:10039C00E732DA629A6946F260010A439A61DA69D5
:1003AC000A43DA611A6A42F4885242F011021A6264
:1003BC005A6C42F400425A641A6842F001021A6004
:1003CC00704700BF003802400F0F0FF010101001E3
:1003DC000D4A136C43F0010313644FF08043002269
:1003EC001A605A6242F2CF029A6242F20F72DA62D9
:1003FC00DA6842F00102DA60044B202283F81C23F5
:10040C004FF080521A6070470038024000E100E063
:10041C00032800D90020054B33F810204FF08043FF
:10042C00DA625A6942F001025A617047D807000833
:10043C00074B1B68074AA2FB03239B09013B4FF0A8
:10044C00E02253610023936107231361704700BFBF
:10045C0000000020D34D6210114A536C43F480739A
:10046C005364104B9A6822F001029A600E494A6854
:10047C0042F480324A60DA6A22F47002DA625A6B11
:10048C0022F01F0242F009025A631A6922F06052EC
:10049C0042F000521A619A6842F001029A60704769
:1004AC00003802400020014000230140234B1A6C0D
:1004BC0042F080521A6422490A6842F440420A60AF
:1004CC001A6842F480321A601C4B1B6813F4003F0C
:1004DC00FAD01C4A136823F00F0343F00503136092
:1004EC00A2F58062936823F47C4323F0F00343F479
:1004FC0014439360144B5360136843F08073136080
:10050C000E4B1B6813F0007FFAD00C4A936823F053
:10051C00030343F002039360084B9B6803F00C0346
:10052C00082BF9D1054A136823F001031360074B1C
:10053C0002F14A4202F5A1321A60704700380240BB
:10054C0000700040003C02400854400700000020AE
:10055C00194B5B6913F0010F2DD0174B01225A6117
:10056C0003F544431B6913F0010F0FD1134B1B7898
:10057C000BBB124B1A70124B1B681433114A1360CD
:10058C000D4A136823F00103136070470E4B1B696F
:10059C0013F0010F0FD10D4B1B7863B90B4B0122DC
:1005AC001A70074B1B681433094A1360024A13680C
:1005BC0023F0010313607047003C01403000002021
:1005CC003C0000202C0000200004024028000020E9
:1005DC002400002008B54FF080431B6913F0010F75
:1005EC0008D04FF08042136923F0010313610D4BC7
:1005FC001B7803B908BDFFF721FE0B4A13680133C2
:10060C0013600A4A13780133594203F0030301F0D3
:10061C00030158BF4B42DBB213701078FFF718FE82
:10062C00E8E700BF38000020340000203A0000202A
:10063C0010B52F4A1368013313602E4B1B78002B17
:10064C002CD013682C4A12689B1A002B26DB294BE2
:10065C0000221A70294B1B6913F0010F19D1284B7A
:10066C001B78002B34D1264B01221A70254C00220A
:10067C002270254B1A701878FFF7CAFEFFF7DEFDC3
:10068C002078FFF7E5FD4FF08042136843F001033B
:10069C0013601E4A136843F0010313601C4B1B7854
:1006AC00ABB1134B1B681B4A12689B1A002B0EDB59
:1006BC00174B00221A70184B1B6913F0010F01D154
:1006CC000F4B1A70114A136843F00103136010BDED
:1006DC000D4A13780133594203F0030301F003016F
:1006EC0058BF4B42DBB213701078FFF791FED0E786
:1006FC003C000020300000202C00002000000240B4
:10070C00380000203A00002039000020003C014055
:10071C00280000202400002000040240DFF830D024
:10072C000C480D490D4A002302E0D458C450043340
:10073C00C4188C42F9D30A4A0A4C002301E0136016
:10074C000432A242FBD300F011F8FFF757FD7047BB
:10075C00000003200000002004000020E80700082F
:10076C000400002040000020FEE7000070B50D4D95
:10077C000D4C641BA4100026A64209D10B4D0C4C49
:10078C0000F018F8641BA4100026A64205D170BD19
:10079C0055F8043B98470136EEE755F8043B98476B
:1007AC000136F2E7E0070008E0070008E007000860
:1007BC00E4070008F8B500BFF8BC08BC9E467047BB
:0C07CC00F8B500BFF8BC08BC9E467047A2
:0807D8000F27CF07E703F3012F
:0407E000D10100083B
:0407E400AD0100085B
:0407E8000024F400F5
:0400000508000729BF
:00000001FF
