:020000040800F2
:100000000000032079040008C5040008C5040008A6
:10001000C5040008C5040008C5040008000000006D
:10002000000000000000000000000000C5040008FF
:10003000C504000800000000C5040008C50400084D
:10004000C5040008C5040008C5040008C50400086C
:10005000C5040008C5040008C5040008C50400085C
:10006000C5040008C5040008C5040008C50400084C
:10007000C5040008C5040008C5040008C50400083C
:10008000C5040008C5040008C5040008C50400082C
:10009000C5040008C5040008C5040008C50400081C
:1000A000C5040008C5040008C5040008C50400080C
:1000B000C5040008C5040008C5040008C5040008FC
:1000C000C5040008C5040008C5040008C5040008EC
:1000D000C5040008C5040008C5040008C5040008DC
:1000E000C5040008C5040008C5040008C5040008CC
:1000F000C5040008C5040008C5040008C5040008BC
:10010000C5040008C5040008C5040008C5040008AB
:10011000C5040008C5040008C5040008C50400089B
:10012000C5040008C5040008C5040008C50400088B
:10013000C5040008C5040008C5040008C50400087B
:10014000C5040008C5040008C5040008C50400086B
:10015000C5040008C5040008C5040008C50400085B
:10016000C5040008C5040008C5040008C50400084B
:10017000C5040008C5040008C5040008000000000C
:10018000C5040008C5040008C5040008C50400082B
:10019000C5040008C5040008C5040008C50400081B
:0C01A000C5040008C5040008C5040008E0
:1001AC0010B5054C237833B9044B13B10448AFF3A5
:1001BC0000800123237010BD00000020000000000F
:1001CC001005000808B5034B1BB103490348AFF3F6
:1001DC00008008BD0000000004000020100500088D
:1001EC000F4AD2F8303843F00201C2F8301843F00D
:1001FC000603C2F830380B4BD3F8002442F480428B
:10020C00C3F80024D3F8082442F48042C3F808242D
:10021C00D3F8182442F40002C3F81824704700BF26
:10022C0000300240000002400D4AD2F8303843F052
:10023C000603C2F830380B4BD3F8002442F080523E
:10024C00C3F80024D3F8082442F08052C3F80824E1
:10025C00D3F8182442F08042C3F81824704700BF2A
:10026C0000300240000002400B4A136B43F00603BF
:10027C0013630A4B1A6842F001021A605A6822F0A2
:10028C0001025A609A6842F001029A609A6942F43B
:10029C0080329A61704700BF00380240000402406F
:1002AC00044B1A6822F080721A60DA6822F08072AD
:1002BC00DA607047000402401A4A936943F08143A4
:1002CC0043F480339361184B1A783AB1704715494F
:1002DC008B6943F080038B610132D2B2134B1B78D4
:1002EC0093421DD3124B19781144124B83FB01031B
:1002FC00A3EBE17303EB4303CB1ADBB2012BE6D088
:10030C00022B07D0002BE7D106498B6943F0010380
:10031C008B61E1E703498B6943F480438B61DBE735
:10032C00704700BF0004024027000020240000207A
:10033C00250000205655555508B50A4A936943F0D7
:10034C00814343F480339361074B1B781BB1064BFD
:10035C0000221A7008BDFFF7AFFF034B01221A7081
:10036C00F8E700BF000402402600002000B585B06D
:10037C00FFF736FFFFF758FFFFF776FFFFF790FF09
:10038C0046E0314B1B78022B0ED030490A780132F3
:10039C002F4B83FB020303EB4303D31A0B70FFF7C2
:1003AC008BFF0023019311E02A4B1B782BB90123FF
:1003BC00284A1370284A1370F1E70023254A13705A
:1003CC00254A1370EBE7019B01330193019A234BF0
:1003DC009A42F8D922E0029B01330293029A1F4BF6
:1003EC009A42F8D91C4B1B7853B917490A78013239
:1003FC00A3F1AA3383FB020303EB4303D31A0B7061
:10040C00FFF75AFF164B00221A60164B1B6873B984
:10041C00154BD3F8103813F4805FB2D1124BD3F8CC
:10042C00103813F4005FF0D000230293D6E7FFF7E7
:10043C0083FF00230393039A0A4B1B689A42E7D26B
:10044C00039B01330393F6E72400002025000020D2
:10045C005655555527000020280000208FD003004A
:10046C001C0000202000002000000240DFF830D0EB
:10047C000C480D490D4A002302E0D458C4500433F3
:10048C00C4188C42F9D30A4A0A4C002301E01360C9
:10049C000432A242FBD300F011F8FFF767FF70475C
:1004AC0000000320000000200000002030050008A0
:1004BC00000000202C000020FEE7000070B50D4D60
:1004CC000D4C641BA4100026A64209D10B4D0C4CFC
:1004DC0000F018F8641BA4100026A64205D170BDCC
:1004EC0055F8043B98470136EEE755F8043B98471E
:1004FC000136F2E728050008280500082805000841
:10050C002C050008F8B500BFF8BC08BC9E46704727
:0C051C00F8B500BFF8BC08BC9E46704754
:04052800D1010008F5
:04052C00AD01000815
:040000050800047972
:00000001FF
