:020000040800F2
:1000000000000320B90200080503000805030008EA
:1000100005030008050300080503000800000000B0
:1000200000000000000000000000000005030008C0
:100030000503000800000000050300080503000890
:100040000503000805030008050300080503000870
:100050000503000805030008050300080503000860
:100060000503000805030008050300080503000850
:100070000503000805030008050300080503000840
:100080000503000805030008050300080503000830
:100090000503000805030008050300080503000820
:1000A0000503000805030008050300080503000810
:1000B0000503000805030008050300080503000800
:1000C00005030008050300080503000805030008F0
:1000D00005030008050300080503000805030008E0
:1000E00005030008050300080503000805030008D0
:1000F00005030008050300080503000805030008C0
:1001000005030008050300080503000805030008AF
:10011000050300080503000805030008050300089F
:10012000050300080503000805030008050300088F
:10013000050300080503000805030008050300087F
:10014000050300080503000805030008050300086F
:10015000050300080503000805030008050300085F
:10016000050300080503000805030008050300084F
:10017000050300080503000805030008000000004F
:10018000050300080503000805030008050300082F
:10019000050300080503000805030008050300081F
:0C01A00005030008050300080503000823
:1001AC0010B5054C237833B9044B13B10448AFF3A5
:1001BC0000800123237010BD00000020000000000F
:1001CC005003000808B5034B1BB103490348AFF3B8
:1001DC00008008BD0000000004000020500300084F
:1001EC000B4A136B43F0060313630A4B1A6842F075
:1001FC0001021A605A6822F001025A609A6842F0B1
:10020C0001029A609A6942F480329A61704700BF89
:10021C000038024000040240044B1A6822F080723D
:10022C001A60DA6822F08072DA60704700080240C7
:10023C0008B5FFF7D5FFFFF7EFFF08BD00B583B09A
:10024C00FFF7F6FF19E0154B1B782BB9134B012266
:10025C001A700023019306E0104B00221A70F8E785
:10026C00019B01330193019A0D4B9A42F8D90AE094
:10027C000C4A936943F0010393610B4BD3F810388C
:10028C0013F4805FDFD1054B1B78012BF0D0054AAE
:10029C00936943F480339361EFE700BF1C000020A7
:1002AC008FD003000004024000000240DFF830D081
:1002BC000C480D490D4A002302E0D458C4500433B5
:1002CC00C4188C42F9D30A4A0A4C002301E013608B
:1002DC000432A242FBD300F011F8FFF7AFFF7047D6
:1002EC000000032000000020000000207003000824
:1002FC000000002020000020FEE7000070B50D4D2E
:10030C000D4C641BA4100026A64209D10B4D0C4CBD
:10031C0000F018F8641BA4100026A64205D170BD8D
:10032C0055F8043B98470136EEE755F8043B9847DF
:10033C000136F2E768030008680300086803000848
:10034C006C030008F8B500BFF8BC08BC9E467047AB
:0C035C00F8B500BFF8BC08BC9E46704716
:04036800D1010008B7
:04036C00AD010008D7
:04000005080002B934
:00000001FF
