:020000040800F2
:100000000000032029040008750400087504000896
:10001000750400087504000875040008000000005D
:10002000000000000000000000000000750400084F
:10003000750400080000000075040008750400083D
:1000400075040008750400087504000875040008AC
:10005000750400087504000875040008750400089C
:10006000750400087504000875040008750400088C
:10007000750400087504000875040008750400087C
:10008000750400087504000875040008750400086C
:10009000750400087504000875040008750400085C
:1000A000750400087504000875040008750400084C
:1000B000750400087504000875040008750400083C
:1000C000750400087504000875040008750400082C
:1000D000750400087504000875040008750400081C
:1000E000750400087504000875040008750400080C
:1000F00075040008750400087504000875040008FC
:1001000075040008750400087504000875040008EB
:1001100075040008750400087504000875040008DB
:1001200075040008750400087504000875040008CB
:1001300075040008750400087504000875040008BB
:1001400075040008750400087504000875040008AB
:10015000750400087504000875040008750400089B
:10016000750400087504000875040008750400088B
:1001700075040008750400087504000800000000FC
:10018000750400087504000875040008750400086B
:10019000750400087504000875040008750400085B
:0C01A000750400087504000875040008D0
:1001AC0010B5054C237833B9044B13B10448AFF3A5
:1001BC0000800123237010BD04000020000000000B
:1001CC00C004000808B5034B1BB103490348AFF347
:1001DC00008008BD0000000008000020C0040008DA
:1001EC001A4A936943F0814343F480339361184B6B
:1001FC001A783AB1704715498B6943F080038B61CB
:10020C000132D2B2134B1B7893421DD3124B197887
:10021C001144124B83FB0103A3EBE17303EB430388
:10022C00CB1ADBB2012BE6D0022B07D0002BE7D187
:10023C0006498B6943F001038B61E1E703498B6944
:10024C0043F480438B61DBE7704700BF000402403E
:10025C002A000020000000202C0000205655555587
:10026C0000B583B00023019302E0019B013301939D
:10027C00019A0D4B1B689A42F7D30C4A936943F0D1
:10028C00814343F480339361094B1B782BB1084BAA
:10029C0000221A7003B05DF804FBFFF7A1FF044BBA
:1002AC0001221A70F6E700BF24000020000402406F
:1002BC002900002000B583B063E0484B1B782BB9B4
:1002CC000123464A1370464A13706EE00023434ADA
:1002DC001370434A137068E0009B01330093009A3B
:1002EC00404B9A42F8D903E03F4A1368013313603C
:1002FC003E4BD3F8103813F4005FF5D13A4B1B6822
:10030C003B4A934216D93B490A7801323A4B83FB5C
:10031C0002035B1003EB8303D31A0B70324B0022E6
:10032C001A60344B1B78042B28D8DFE803F02443E5
:10033C00474B4F00013B314A9342F2D8284B1B7874
:10034C0053B92F490A780132A3F1AA3383FB020374
:10035C0003EB4303D31A0B70FFF742FF0023224A2F
:10036C001360019302E0019B01330193019A1D4B31
:10037C009A42F8D9D5E7234B00221A60214B1B680F
:10038C004BBB1A4BD3F8103813F4805FB0D01C4B16
:10039C001B78022B91D01C490A7801321B4B83FB32
:1003AC00020303EB4303D31A0B70FFF719FF00236F
:1003BC00009394E7134B164A1A60DFE7114B154A6A
:1003CC001A60DBE70F4B144A1A60D7E70D4B4CF25F
:1003DC0050321A60D2E7FFF743FFD2E72A00002021
:1003EC002B0000208FD003002000002000000240D2
:1003FC001FA1070028000020676666661EA1070083
:10040C0000000020240000202C00002056555555DB
:10041C0040420F0020A10700E0930400DFF830D029
:10042C000C480D490D4A002302E0D458C450043343
:10043C00C4188C42F9D30A4A0A4C002301E0136019
:10044C000432A242FBD300F011F8FFF733FF7047E0
:10045C00000003200000002004000020E00400083D
:10046C000400002030000020FEE7000070B50D4DA8
:10047C000D4C641BA4100026A64209D10B4D0C4C4C
:10048C0000F018F8641BA4100026A64205D170BD1C
:10049C0055F8043B98470136EEE755F8043B98476E
:1004AC000136F2E7D8040008D8040008D804000884
:1004BC00DC040008F8B500BFF8BC08BC9E467047C9
:0C04CC00F8B500BFF8BC08BC9E467047A5
:0404D800D101000846
:0404DC00AD01000866
:0404E0000200000016
:0400000508000429C2
:00000001FF
