:020000040800F2
:100000000000032075060008C1060008C1060008AC
:10001000C1060008C1060008C10600080000000073
:10002000000000000000000000000000C106000801
:10003000C106000800000000C1060008B90500085C
:10004000C1060008C1060008C1060008C106000874
:10005000C1060008C10600081D050008C106000809
:10006000C1060008C1060008C1060008C106000854
:10007000C1060008C1060008C1060008C106000844
:10008000C1060008C1060008C1060008C106000834
:10009000C1060008C1060008C1060008C106000824
:1000A000C1060008C1060008C1060008C106000814
:1000B0005D050008C1060008C1060008C106000869
:1000C000C1060008C1060008C1060008C1060008F4
:1000D000C1060008C1060008C1060008C1060008E4
:1000E000C1060008C1060008C1060008C1060008D4
:1000F000C1060008C1060008C1060008C1060008C4
:10010000C1060008C1060008C1060008C1060008B3
:10011000C1060008C1060008C1060008C1060008A3
:10012000C1060008C1060008C1060008C106000893
:10013000C1060008C1060008C1060008C106000883
:10014000C1060008C1060008C1060008C106000873
:10015000C1060008C1060008C1060008C106000863
:10016000C1060008C1060008C1060008C106000853
:10017000C1060008C1060008C10600080000000012
:10018000C1060008C1060008C1060008C106000833
:10019000C1060008C1060008C1060008C106000823
:0C01A000C1060008C1060008C1060008E6
:1001AC0010B5054C237833B9044B13B10448AFF3A5
:1001BC0000800123237010BD04000020000000000B
:1001CC000C07000808B5034B1BB103490348AFF3F8
:1001DC00008008BD00000000080000200C0700088B
:1001EC0008B500F043F900F0D5F800F04BF800F03A
:1001FC00A1F800F0E3F808BD08B5FFF7F1FF00F037
:10020C0015F80023054A1370054A1370054A13703C
:10021C0000F01CF9044B186030BFF9E730000020E7
:10022C00320000203100002020000020044B4FF051
:10023C0060729A6103F580634FF400329A617047E3
:10024C000014024048B101280BD002280CD003281E
:10025C000DD002280FD8002200E08022074B9A61B3
:10026C0070474FF48072F9E74FF40072F6E7022200
:10027C00034B9A6170470022FAE700BF001402405A
:10028C0000180240274B1A6B42F061021A635A6C39
:10029C0042F480425A64A3F510531A6822F47C226B
:1002AC0042F4A8221A605A6822F460725A60DA6822
:1002BC0022F47C22DA6003F580631A6822F00C02C7
:1002CC0042F004021A605A6822F002025A60DA689C
:1002DC0022F00C02DA60144A136823F00303136053
:1002EC00D36823F0030343F00103D360A2F5484223
:1002FC00936823F00F0393600C4B1A6842F00102D1
:10030C001A60DA6842F00102DA609A6822F001029F
:10031C009A6001225A61064B102283F80623402270
:10032C001A6070470038024000000240003C014057
:10033C0000E100E00D4A136C43F0010313644FF02D
:10034C00804300221A605A6242F2CF029A6242F251
:10035C000F72DA62DA6842F00102DA60044B202292
:10036C0083F81C234FF080521A607047003802400B
:10037C0000E100E0032800D90020054B33F81020E1
:10038C004FF08043DA625A6942F001025A617047B9
:10039C0024070008074B1B68074AA2FB03239B0991
:1003AC00013B4FF0E022536100239361072313615B
:1003BC00704700BF00000020D34D621082B0204B6C
:1003CC001A6B42F004021A635A6C42F480625A644B
:1003DC001C4A136843F4403313601B4B00229A6091
:1003EC009A6842F001029A6042F210730193019BE9
:1003FC005A1E0192002BFAD1134B0022DA6208220A
:10040C005A631A6942F0E0621A619A6822F001029A
:10041C009A6042F210730193019B5A1E0192002BB9
:10042C00FAD1094A936843F00103936042F21073C6
:10043C000193019B5A1E0192002BFAD102B0704716
:10044C00003802400008024000220140064A93682E
:10045C0043F080439360044B1B6813F0020FFAD0F7
:10046C00014BD86C80B2704700220140234B1A6CB0
:10047C0042F080521A6422490A6842F440420A60EF
:10048C001A6842F480321A601C4B1B6813F4003F4C
:10049C00FAD01C4A136823F00F0343F005031360D2
:1004AC00A2F58062936823F47C4323F0F00343F4B9
:1004BC0014439360144B5360136843F080731360C0
:1004CC000E4B1B6813F0007FFAD00C4A936823F094
:1004DC00030343F002039360084B9B6803F00C0387
:1004EC00082BF9D1054A136823F001031360074B5D
:1004FC0002F14A4202F5A1321A60704700380240FC
:10050C0000700040003C02400854400700000020EE
:10051C000B4B5B6913F0010F11D0094B01225A618F
:10052C00084B1B785BB9074B1A70074B1B681433CD
:10053C00064A1360024A136823F0010313607047E4
:10054C00003C014028000020340000202400002042
:10055C0008B54FF080431B6913F0010F08D04FF022
:10056C008042136923F0010313610D4B1B7803B90F
:10057C0008BDFFF75BFE0B4A1368013313600A4A90
:10058C0013780133594203F0030301F0030158BF00
:10059C004B42DBB213701078FFF754FEE8E700BF54
:1005AC00300000202C00002032000020264A136866
:1005BC0001331360254B1B78002B43D01368244A5E
:1005CC0012689B1A002B3DDB204B00221A70214B2A
:1005DC001B6913F0010F2FD110B51F4B1B78DBB922
:1005EC001D4B01221A701D4C002222701C4B1A70DC
:1005FC001878FFF7BFFEFFF719FE2078FFF722FEF1
:10060C004FF08042136843F001031360154A1368DE
:10061C0043F00103136010BD114A137801335942A2
:10062C0003F0030301F0030158BF4B42DBB213701C
:10063C001078FFF79FFEE9E70A4A136843F00103BD
:10064C0013607047704700BF340000202800002062
:10065C002400002000000240300000203200002066
:10066C0031000020003C0140DFF830D00C480D492F
:10067C000D4A002302E0D458C4500433C4188C42F1
:10068C00F9D30A4A0A4C002301E013600432A24257
:10069C00FBD300F011F8FFF7AFFD7047000003200B
:1006AC000000002004000020340700080400002093
:1006BC0038000020FEE7000070B50D4D0D4C641B9A
:1006CC00A4100026A64209D10B4D0C4C00F018F8D2
:1006DC00641BA4100026A64205D170BD55F8043B3E
:1006EC0098470136EEE755F8043B98470136F2E798
:1006FC002C0700082C0700082C07000830070008FE
:10070C00F8B500BFF8BC08BC9E467047F8B500BFF2
:08071C00F8BC08BC9E467047C2
:080724000F27CF07E703F301E3
:04072C00D1010008EF
:04073000AD0100080F
:040734000024F400A9
:040000050800067574
:00000001FF
