:020000040800F2
:1000000000000320110500085D0500085D050008DB
:100010005D0500085D0500085D05000800000000A2
:100020000000000000000000000000005D05000866
:100030005D050008000000005D0500085D05000882
:100040005D0500085D0500085D0500085D05000808
:100050005D0500085D0500085D0500085D050008F8
:100060005D0500085D0500085D0500085D050008E8
:100070005D0500085D0500085D0500085D050008D8
:100080005D0500085D0500085D0500085D050008C8
:100090005D0500085D0500085D0500085D050008B8
:1000A0005D0500085D0500085D0500085D050008A8
:1000B0005D0500085D0500085D0500085D05000898
:1000C0005D0500085D0500085D0500085D05000888
:1000D0005D0500085D0500085D0500085D05000878
:1000E0005D0500085D0500085D0500085D05000868
:1000F0005D0500085D0500085D0500085D05000858
:100100005D0500085D0500085D0500085D05000847
:100110005D0500085D0500085D0500085D05000837
:100120005D0500085D0500085D0500085D05000827
:100130005D0500085D0500085D0500085D05000817
:100140005D0500085D0500085D0500085D05000807
:100150005D0500085D0500085D0500085D050008F7
:100160005D0500085D0500085D0500085D050008E7
:100170005D0500085D0500085D0500080000000041
:100180005D0500085D0500085D0500085D050008C7
:100190005D0500085D0500085D0500085D050008B7
:0C01A0005D0500085D0500085D05000815
:1001AC0010B5054C237833B9044B13B10448AFF3A5
:1001BC0000800123237010BD04000020000000000B
:1001CC00A805000808B5034B1BB103490348AFF35E
:1001DC00008008BD0000000008000020A8050008F1
:1001EC000F4AD2F8303843F00201C2F8301843F00D
:1001FC000603C2F830380B4BD3F8002442F480428B
:10020C00C3F80024D3F8082442F48042C3F808242D
:10021C00D3F8182442F40002C3F81824704700BF26
:10022C0000300240000002400D4AD2F8303843F052
:10023C000603C2F830380B4BD3F8002442F080523E
:10024C00C3F80024D3F8082442F08052C3F80824E1
:10025C00D3F8182442F08042C3F81824704700BF2A
:10026C0000300240000002400B4A136B43F00603BF
:10027C0013630A4B1A6842F001021A605A6822F0A2
:10028C0001025A609A6842F001029A609A6942F43B
:10029C0080329A61704700BF00380240000402406F
:1002AC00044B1A6822F080721A60DA6822F08072AD
:1002BC00DA607047000402401A4A936943F08143A4
:1002CC0043F480339361184B1A783AB1704715494F
:1002DC008B6943F080038B610132D2B2134B1B78D4
:1002EC0093421DD3124B19781144124B83FB01031B
:1002FC00A3EBE17303EB4303CB1ADBB2012BE6D088
:10030C00022B07D0002BE7D106498B6943F0010380
:10031C008B61E1E703498B6943F480438B61DBE735
:10032C00704700BF000402402B000020000000209A
:10033C00290000205655555500B583B00023019374
:10034C0002E0019B01330193019A0D4B1B689A4209
:10035C00F7D30C4A936943F0814343F480339361A0
:10036C00094B1B782BB1084B00221A7003B05DF8B7
:10037C0004FBFFF7A1FF044B01221A70F6E700BF44
:10038C0024000020000402402A00002000B583B0A5
:10039C00FFF726FFFFF748FFFFF766FFFFF780FF29
:1003AC0063E0484B1B782BB90123464A1370464A2D
:1003BC0013706EE00023434A1370434A137068E0D5
:1003CC00009B01330093009A404B9A42F8D903E00A
:1003DC003F4A1368013313603E4BD3F8103813F4C3
:1003EC00005FF5D13A4B1B683B4A934216D93B4907
:1003FC000A7801323A4B83FB02035B1003EB830355
:10040C00D31A0B70324B00221A60344B1B78042B1E
:10041C0028D8DFE803F02443474B4F00013B314A17
:10042C009342F2D8284B1B7853B92F490A780132E2
:10043C00A3F1AA3383FB020303EB4303D31A0B7020
:10044C00FFF73AFF0023224A1360019302E0019B5D
:10045C0001330193019A1D4B9A42F8D9D5E7234BEE
:10046C0000221A60214B1B684BBB1A4BD3F8103877
:10047C0013F4805FB0D01C4B1B78022B91D01C491D
:10048C000A7801321B4B83FB020303EB4303D31AA1
:10049C000B70FFF711FF0023009394E7134B164AE0
:1004AC001A60DFE7114B154A1A60DBE70F4B144A51
:1004BC001A60D7E70D4B4CF250321A60D2E7FFF7B7
:1004CC003BFFD2E72B0000202C0000208FD0030034
:1004DC0020000020000002401FA10700280000207F
:1004EC00676666661EA1070000000020240000203D
:1004FC00290000205655555540420F0020A10700F9
:10050C00E0930400DFF830D00C480D490D4A00236D
:10051C0002E0D458C4500433C4188C42F9D30A4AAC
:10052C000A4C002301E013600432A242FBD300F01A
:10053C0011F8FFF72BFF704700000320000000208C
:10054C0004000020C8050008040000203000002032
:10055C00FEE7000070B50D4D0D4C641BA410002679
:10056C00A64209D10B4D0C4C00F018F8641BA410DA
:10057C000026A64205D170BD55F8043B98470136BC
:10058C00EEE755F8043B98470136F2E7C005000842
:10059C00C0050008C0050008C4050008F8B500BF78
:1005AC00F8BC08BC9E467047F8B500BFF8BC08BC48
:0405BC009E467047A0
:0405C000D10100085D
:0405C400AD0100087D
:0405C800020000002D
:0400000508000511D9
:00000001FF
