:020000040800F2
:10000000000003208D070008D9070008D907000861
:10001000D9070008D9070008D90700080000000028
:10002000000000000000000000000000D9070008E8
:10003000D907000800000000D907000825070008BC
:10004000D9070008D9070008D9070008D907000810
:10005000D9070008D907000879060008D907000861
:10006000D9070008A9060008D9070008D907000821
:10007000D9070008D9070008D9070008D9070008E0
:10008000D9070008D9070008D9070008D9070008D0
:10009000D9070008D9070008D9070008D9070008C0
:1000A000D9070008D9070008D9070008D9070008B0
:1000B000D9070008D9070008D9070008D9070008A0
:1000C000D9070008D9070008D9070008D907000890
:1000D000D9070008D9070008D9070008D907000880
:1000E000D9070008D9070008D9070008D907000870
:1000F000D9070008D9070008D9070008D907000860
:10010000D9070008D9070008D9070008D90700084F
:10011000D9070008D9070008D9070008D90700083F
:10012000D9070008D9070008D9070008D90700082F
:10013000D9070008D9070008D9070008D90700081F
:10014000D9070008D9070008D9070008D90700080F
:10015000D9070008D9070008D9070008D9070008FF
:10016000D9070008D9070008D9070008D9070008EF
:10017000D9070008D9070008D907000800000000C7
:10018000D9070008D9070008D9070008D9070008CF
:10019000D9070008D9070008D9070008D9070008BF
:0C01A000D9070008D9070008D90700089B
:1001AC0010B5054C237833B9044B13B10448AFF3A5
:1001BC0000800123237010BD080000200000000007
:1001CC002408000808B5034B1BB103490348AFF3DF
:1001DC00008008BD000000000C000020240800086E
:1001EC00184A936943F0FA539361174B1B78052B0C
:1001FC0027D8DFE803F003090F151B21114A936977
:10020C0043F48073936170470E4A936943F400730F
:10021C00936170470B4A936943F480639361704711
:10022C00084A936943F4006393617047054A9369E4
:10023C0043F4805393617047024A936943F040033F
:10024C0093617047000802402D00002008B50F4B49
:10025C001A780F4B33F812200E4B1B68B3EB520F6E
:10026C0011D30D4A936943F0FA539361074B1A78F3
:10027C00074B33F81220074B1B689A4202D8054BE8
:10028C0000221A6008BDFFF7ABFFEFE72400002047
:10029C0000000020280000200008024005490A78D0
:1002AC000132054B83FB020303EB4303D31A0B70A0
:1002BC00704700BF240000205655555507490A7851
:1002CC000132074B83FB020303EB43035800131A61
:1002DC000B70044B00221A60704700BF2D000020E9
:1002EC00ABAAAA2A2800002008B500F0DFF800F01D
:1002FC0059F800F047F900F099F9154A936943F061
:10030C00FA53936114E0FFF7D9FF124B00221A70D5
:10031C0012E0FFF7C3FF00230F4A13700F4A13605C
:10032C000EE00B4A936943F0FA539361FFF78EFF8B
:10033C00084B1B78002BE6D1074B1B78002BE8D120
:10034C00074B1B78002BECD1FFF74AFFF0E700BFFF
:10035C00000802402F0000202E0000202800002062
:10036C002C00002000B500F00700C0F1070CBCF118
:10037C00040F28BF4FF0040C031D062B0FD9C31E0E
:10038C004FF0FF3E0EFA0CF021EA000199400EFAF4
:10039C0003FE22EA0E0241EA02005DF804FB002390
:1003AC00EEE700003F4A136823F0F80343F08003A4
:1003BC001360002393603B4B9B6813F00C0FFAD136
:1003CC00384A136823F080731360364B1B6813F0A4
:1003DC00007FFAD1334A136823F410231360314B96
:1003EC001B6813F4003FFAD12E4B1A6822F48022BA
:1003FC001A601A6842F480321A602A4B1B6813F494
:10040C00003FFAD0274B1A6822F480221A601A682F
:10041C0042F400221A6000225A605A6842F48002A8
:10042C005A605A6822F03F0242F004025A605A683D
:10043C006FF38E1242F434525A605A6822F44032EE
:10044C005A601A6842F080721A60164B1B6813F0DF
:10045C00007FFAD1134B9A6822F0030242F0020299
:10046C009A609A6822F0F0029A609A6822F4E0523C
:10047C0042F4A0529A609A6822F4604242F400421C
:10048C009A609A6842F060529A609A6822F04042F0
:10049C009A60054A136823F00F0343F005031360B9
:1004AC00704700BF00380240003C0240334A136BD7
:1004BC0043F034031363324B1A6842F480321A60EF
:1004CC005A6822F480725A609A6842F480329A60B8
:1004DC00DA6822F48032DA601A6842F480221A60F8
:1004EC005A6822F400725A609A6842F480229A6028
:1004FC00DA6822F48022DA601A6842F480121A60F8
:10050C005A6822F480625A609A6842F480129A60A7
:10051C00DA6822F48012DA601A6842F480021A60F7
:10052C005A6822F400625A609A6842F480029A6017
:10053C00DA6822F48002DA601A6842F080721A607B
:10054C005A6822F480525A609A6842F080729A601B
:10055C00DA6822F08072DA601A6842F480521A600B
:10056C005A6822F040025A609A6842F480529A60AB
:10057C00DA6822F48052DA60704700BF003802401B
:10058C000008024038B5244A536C43F4804353644A
:10059C0022498B6823F00F0343F002038B60204B3E
:1005AC001A6842F001021A609A6842F001029A60DD
:1005BC00DA6842F00102DA608A6822F4704242F48E
:1005CC0000528A601A6842F008021A609A6842F077
:1005DC0008029A60DA6842F00802DA60114DE868A5
:1005EC0000221146C0F30220FFF7BCFE0001C0B28E
:1005FC000D4C84F80603E86800220121C0F30220A8
:10060C00FFF7B0FE0001C0B284F809034023236059
:10061C004FF40073236038BD0038024000380140AD
:10062C00003C014000ED00E000E100E04FF0E02371
:10063C001A6922F001021A611A6942F002021A6167
:10064C001A6942F004021A61596901F07F41064AA5
:10065C000A435A619A6902F07F429A611A6942F020
:10066C0001021A61704700BF1FBF0200084A53699C
:10067C0043F001035361074B1B68C72B06D9064A8D
:10068C00137801331370034B00221A60704700BFBC
:10069C00003C0140340000202F000020174B5B6908
:1006AC0013F0080F29D0154A536943F0080353611E
:1006BC00134B1B68C72B20D9124A127842B9124A25
:1006CC001360104B01221A70104B00221A707047E5
:1006DC000D4A12689B1A0E4A1360653B40F26B720E
:1006EC00934205D8094B1B7813B90A4B01221A7097
:1006FC000023044A1370024A13607047003C014007
:10070C00340000203C000020380000203000002085
:10071C00400000202E000020124A136801331360A1
:10072C0011490A6801320A60104A1278012A00D075
:10073C0070470F4A1278002AFAD10E4A12689B1A97
:10074C000D4A1360B3F5FA6FF2D90C4A1378B3FA69
:10075C0083F35B09137000220A60054B01221A70A7
:10076C00E6E700BF34000020280000203C000020F9
:10077C003000002038000020400000202C00002019
:10078C00DFF830D00C480D490D4A002302E0D45854
:10079C00C4500433C4188C42F9D30A4A0A4C0023BF
:1007AC0001E013600432A242FBD300F011F8FFF712
:1007BC009BFD704700000320000000200800002073
:1007CC00440800080800002044000020FEE7000058
:1007DC0070B50D4D0D4C641BA4100026A64209D11A
:1007EC000B4D0C4C00F018F8641BA4100026A6420C
:1007FC0005D170BD55F8043B98470136EEE755F826
:10080C00043B98470136F2E73C0800083C08000816
:10081C003C08000840080008F8B500BFF8BC08BC4C
:10082C009E467047F8B500BFF8BC08BC9E467047A2
:04083C00D1010008DE
:04084000AD010008FE
:080844008813E2040103000027
:040000050800078D5B
:00000001FF
