:020000040800F2
:10000000000002206D020008BD020008BD020008C9
:10001000BD020008BD020008BD020008000000008B
:10002000000000000000000000000000BD02000809
:10003000BD02000800000000BD020008BD0200086B
:10004000BD020008BD020008BD020008BD02000894
:10005000BD020008BD020008BD020008BD02000884
:10006000BD020008BD020008BD020008BD02000874
:10007000BD020008BD020008BD020008BD02000864
:10008000BD020008BD020008BD020008000000001B
:10009000000000000000000000000000BD02000899
:1000A000BD020008BD020008BD020008BD02000834
:1000B000BD020008BD020008BD020008BD02000824
:1000C000BD020008BD020008BD020008BD02000814
:1000D000BD020008BD020008BD02000800000000CB
:1000E000BD020008BD020008BD02000800000000BB
:1000F000000000000000000000000000BD02000839
:1001000000000000BD020008BD020008BD0200089A
:1001100000000000000000000000000000000000DF
:10012000BD020008BD020008BD020008BD020008B3
:10013000BD020008000000000000000000000000F8
:10014000000000000000000000000000BD020008E8
:10015000BD020008BD020008BD020008BD02000883
:10016000BD020008BD020008000000000000000001
:10017000000000000000000000000000000000007F
:1001800000000000BD0200080000000000000000A8
:08019000BD020008BD020008D9
:1001980010B5054C237833B9044B13B10448AFF3B9
:1001A80000800123237010BD000000200000000023
:1001B8000803000808B5034B1BB103490348AFF314
:1001C800008008BD000000000400002008030008AB
:1001D800034AD2F8883043F47003C2F88830704775
:1001E80000ED00E00A4AD2F8303843F00603C2F8BE
:1001F8003038084BD3F8002442F48042C3F8002476
:10020800D3F8082442F48042C3F80824704700BF9A
:10021800003002400000024008B5FFF7E3FF0CE0A1
:100228000F4AD2F8183443F08001C2F8181443F08A
:10023800804343F08003C2F81834094BD3F81038D0
:1002480013F4005FECD1064AD2F8183443F40003E3
:10025800C2F8183443F48043C2F81834EDE700BFFD
:1002680000000240DFF834D00D480E490E4A002342
:1002780002E0D458C4500433C4188C42F9D30B4A52
:100288000B4C002301E013600432A242FBD3FFF7BA
:100298009FFF00F011F8FFF7BFFF70470000022032
:1002A80000000020000000202803000800000020B3
:1002B8001C000020FEE7000070B50D4D0D4C641BBE
:1002C800A4100026A64209D10B4D0C4C00F018F8DA
:1002D800641BA4100026A64205D170BD55F8043B46
:1002E80098470136EEE755F8043B98470136F2E7A0
:1002F8002003000820030008200300082403000846
:10030800F8B500BFF8BC08BC9E467047F8B500BFFA
:08031800F8BC08BC9E467047CA
:04032000BD01000813
:040324009901000833
:040000050800026D80
:00000001FF
