:020000040800F2
:1000000000000320310200087D0200087D02000884
:100010007D0200087D0200087D020008000000004B
:100020000000000000000000000000007D02000849
:100030007D020008000000007D0200087D0200082B
:100040007D0200087D0200087D0200087D02000894
:100050007D0200087D0200087D0200087D02000884
:100060007D0200087D0200087D0200087D02000874
:100070007D0200087D0200087D0200087D02000864
:100080007D0200087D0200087D0200087D02000854
:100090007D0200087D0200087D0200087D02000844
:1000A0007D0200087D0200087D0200087D02000834
:1000B0007D0200087D0200087D0200087D02000824
:1000C0007D0200087D0200087D0200087D02000814
:1000D0007D0200087D0200087D0200087D02000804
:1000E0007D0200087D0200087D0200087D020008F4
:1000F0007D0200087D0200087D0200087D020008E4
:100100007D0200087D0200087D0200087D020008D3
:100110007D0200087D0200087D0200087D020008C3
:100120007D0200087D0200087D0200087D020008B3
:100130007D0200087D0200087D0200087D020008A3
:100140007D0200087D0200087D0200087D02000893
:100150007D0200087D0200087D0200087D02000883
:100160007D0200087D0200087D0200087D02000873
:100170007D0200087D0200087D02000800000000EA
:100180007D0200087D0200087D0200087D02000853
:100190007D0200087D0200087D0200087D02000843
:0C01A0007D0200087D0200087D020008BE
:1001AC0010B5054C237833B9044B13B10448AFF3A5
:1001BC0000800123237010BD00000020000000000F
:1001CC00C802000808B5034B1BB103490348AFF341
:1001DC00008008BD0000000004000020C8020008D8
:1001EC000E4AD2F8303843F00203C2F8303802F528
:1001FC005042D2F8003443F48043C2F80034084B28
:10020C00D3F8082442F48042C3F80824D3F8182405
:10021C0042F08002C3F81824FEE700BF0030024011
:10022C0000000240DFF830D00C480D490D4A002385
:10023C0002E0D458C4500433C4188C42F9D30A4A8F
:10024C000A4C002301E013600432A242FBD300F0FD
:10025C0011F8FFF7C5FF70470000032000000020D5
:10026C0000000020E8020008000000201C00002014
:10027C00FEE7000070B50D4D0D4C641BA41000265C
:10028C00A64209D10B4D0C4C00F018F8641BA410BD
:10029C000026A64205D170BD55F8043B984701369F
:1002AC00EEE755F8043B98470136F2E7E002000808
:1002BC00E0020008E0020008E4020008F8B500BF04
:1002CC00F8BC08BC9E467047F8B500BFF8BC08BC2B
:0402DC009E46704783
:0402E000D101000840
:0402E400AD01000860
:0400000508000231BC
:00000001FF
